:03000000020A2CC5
:0C0A2C00787FE4F6D8FD75816C020A7337
:09073E004101420042012F0000BC
:10002600C2AF53890F438920759850758DFA758B29
:0D003600FA438780D2ACD28ED29CD2AF228A
:100D9D00E0FBA3E0FAA3E0F98D828C83120AD1FF68
:0F0DAD008F9990010E7401F090010EE070FA2200
:0B09990090014DEBF0A3EAF0A3E9F0A1
:1009A40090014DE0FBA3E0FAA3E0F974019000018B
:1009B4006B7008E965827003EA658360569000995C
:1009C400E0FF04F090014DE0FBA3E0FAA3E0F9900E
:1009D4000003EF120AFE900003120AD17013900173
:1009E4004DE0FBA3E0FAA3E0F99000037401120ABE
:1009F400FE90014D120BFC90014DE0FBA3E0FAA325
:100A0400E0F990001BEF120AFE90010CE090000147
:100A1400120AFEE4FDFC90014D120D9D0DBD000176
:070A24000CED641C4C70EFA7
:010A2B0022A8
:0B0B9B0090014DEBF0A3EAF0A3E9F09D
:100BA600900099E0FF04F0900003EF120AFE900017
:100BB60003120AD1701390014DE0FBA3E0FAA3E003
:100BC600F99000037401120AFE90014D120BFC907D
:100BD600014DE0FBA3E0FAA3E0F990001BEF120A37
:100BE600FEE4FDFC90014D120D9D0DBD00010CEDC6
:050BF600641C4C70EFCF
:010BFB0022D7
:030023000208A42C
:0D08A400C0E0C0F0C083C082C0D075D0108D
:0608B100209803020987F4
:1008B70090014BE599F0C2ACC29820000302096889
:1008C700900131E004F0E0B40F26120D5490014B73
:1008D700E0FEB5171B900131E02432F582E43401C4
:1008E700F583EEF0C200D202900131E4F0020983F1
:1008F700900131E0FFB4021890014BE0FEB401060D
:100907009001427401F0EEB402069001427402F0C5
:10091700EFC3940F504090014BE0FF900131E0FE90
:100927002432F582E43401F583EFF0900142E0FDD3
:10093700B4010C740F2EF582E43401F583EFF0ED6A
:100947006402703890014BE0FF900131E0241FF5FD
:1009570082E434018022900131E4F0D201C20080A8
:100967001B90014BE0FFB4F513D200900131E4F086
:0E097700E02432F582E43401F583EFF0D2ACD7
:090985008007C29990010EE4F014
:0B098E00D0D0D082D083D0F0D0E03277
:100D5400E4FFFEFDFC74322DF582E43401F583E0FA
:100D64002FFFE43EFE0DBD00010CED640F4C70E559
:040D7400EFF404FF95
:010D78002258
:080BFC00E0FBA3E0FAA3E0F91D
:0B0C0400900150EBF0A3EAF0A3E9F030
:100C0F00E4A3F0A3F0FFFE900150E0FBA3E0FAA3F2
:100C1F00E0F98F828E83120AD1FD900154E02DF0FE
:100C2F00900153E03400F00FBF00010EEF641B4E34
:100C3F0070D57E00900154E0FF900153EEF0A3EFCA
:0C0C4F00F0F404FF900153EEF0A3EFF06E
:010C5B002276
:10053E0000C1814001C0804101C0804100C18140A5
:10054E0001C0804100C1814000C1814001C0804195
:10055E0001C0804100C1814000C1814001C0804185
:10056E0000C1814001C0804101C0804100C1814075
:10057E0001C0804100C1814000C1814001C0804165
:10058E0000C1814001C0804101C0804100C1814055
:10059E0000C1814001C0804101C0804100C1814045
:1005AE0001C0804100C1814000C1814001C0804135
:1005BE0001C0804100C1814000C1814001C0804125
:1005CE0000C1814001C0804101C0804100C1814015
:1005DE0000C1814001C0804101C0804100C1814005
:1005EE0001C0804100C1814000C1814001C08041F5
:1005FE0000C1814001C0804101C0804100C18140E5
:10060E0001C0804100C1814000C1814001C08041D4
:10061E0001C0804100C1814000C1814001C08041C4
:10062E0000C1814001C0804101C0804100C18140B4
:10063E0000C0C101C30302C2C60607C705C5C40474
:10064E00CC0C0DCD0FCFCE0E0ACACB0BC90908C8E4
:10065E00D81819D91BDBDA1A1EDEDF1FDD1D1CDCD4
:10066E0014D4D515D71716D6D21213D311D1D01044
:10067E00F03031F133F3F23236F6F737F53534F434
:10068E003CFCFD3DFF3F3EFEFA3A3BFB39F9F838A4
:10069E0028E8E929EB2B2AEAEE2E2FEF2DEDEC2C94
:1006AE00E42425E527E7E62622E2E323E12120E004
:1006BE00A06061A163A3A26266A6A767A56564A4F4
:1006CE006CACAD6DAF6F6EAEAA6A6BAB69A9A86864
:1006DE0078B8B979BB7B7ABABE7E7FBF7DBDBC7C54
:1006EE00B47475B577B7B67672B2B373B17170B0C4
:1006FE0050909151935352929656579755959454B4
:10070E009C5C5D9D5F9F9E5E5A9A9B5B9959589823
:10071E00884849894B8B8A4A4E8E8F4F8D4D4C8C13
:10072E004484854587474686824243834181804083
:10074700103F000000000000000000000000000053
:100757000000410095004100960041003A00410029
:100767009800420077000042010A000042003C0066
:1007770000410097004100390041010C00410099F8
:100787000141010D005C0001FA001C00000100009E
:100797000000000000000000000000000000000052
:1007A700000000EA5C003EFA011C000101010000A4
:1007B7000000000000000000000000000000000032
:1007C7000000E75C005AFA021C000101010000006A
:1007D7000000000000000000000000000000000012
:1007E70000E65C009AFA011C0002010B0C010000F4
:1007F70000000000000000000001000000000000F1
:100807007B5C00EEFA011C0002010B0C01000000EA
:10081700000000000000000003000000000000636B
:100827005C0079FA011C0003010080000000000051
:100837000000000000000000000000000000005C55
:1008470000B6FA011C00030101800000000000004F
:1008570000000000000000000000000000005C0035
:10086700D2FA021C00030101800000000000000012
:10087700000000000000000000000000005C001DF8
:10088700FA011C0003010100000000000000000045
:0C08970000000000000000000000000055
:060C5C007A00794F7D06CD
:0E0C6200900147EBF0A3EAF0A3E9F0A3EDF058
:100C70007DFF7FFF90014AE0FE14F0EE60259001B9
:100C800047E0FBA3E475F001120B20A9F0FA120A69
:100C9000B86DFB7A0090053E936FFDEB90063E9396
:070CA000FF80D1EFFEEDFF24
:010CA700222A
:100DBC00900155EEF0A3EFF0C3EE648094805008E0
:080DCC0000EF1F70F31E80F020
:010DD40022FC
:040D79007FF47E0184
:100D7D00D3EF9400EE6480948040147D8D7C00ED63
:0F0D8D001D70011CED4C70F7EF1F70E41E80E12C
:010D9C002234
:10000E00538EF7759A50538EFB759CFD75AF01D2CA
:05001E00AF438E10222B
:0B0E07008F9BE59A30E1FB539AFD221F
:060CA8007B007A007921B7
:0E0CAE00900147EBF0A3EAF0A3E9F0A3EDF00C
:100CBC00E4FDFC90014AE0FFC3ED9F7480F86C9852
:100CCC00501D900147E0FBA3E0FAA3E0F98D828C64
:100CDC0083120AD1FF120E070DBD00010C80D4E463
:040CEC00900095F0EF
:010CF00022E1
:03004300020CF1BB
:100CF100C0E0C083C082C0D075D018E59A30E02230
:100D0100539AFE90014CE59BF0E0FF900095E024A2
:100D11004FF8A61FE004F0E0B40807E4F090003AB1
:020D210004F0DC
:090D2300D0D0D082D083D0E032A0
:100046007850E664017073FB120C5C900143EEF08D
:10005600FCA3EFF0FD7855E6FEE4B50508EEB50421
:10006600047F0180027F00EF785646604D784FE6A8
:100076007821F67850E67822F6087604E580F408CA
:10008600F6E5A0F408F6E5905401FF900039E04F3C
:10009600F408F6E408F6FB7A0079217D07120C6273
:1000A600900143EEF0A3EFF0900143E0FEA3E07869
:1000B60028F6EE08F67D09120CA87850E66405606D
:1000C600030203067852E6FF90010AE4F0A3EFF07C
:1000D6007B00120C5C900143EEF0FCA3EFF0FD7880
:1000E60055E6FEE4B50508EEB504047F0180027FFF
:1000F60000EF78564670030203067853E6F4600371
:1001060002022390010AE0FEA3E0FFEE6003020272
:10011600BDEFB4120040030202BD900127F8282863
:100126007302015D02016802017302017E02018908
:1001360002019402019F0201AA0201B50201C00256
:1001460001CB0201D60201E10201EC0201F7020233
:100156000202020D020218C2809000977401F0029A
:1001660002BDC2819000977402F00202BDC2829065
:1001760000977403F00202BDC2839000977404F0E6
:100186000202BDC2849000977405F00202BDC285CA
:100196009000977406F00202BDC28690009774071D
:1001A600F00202BDC2879000977408F00202BDC239
:1001B600A09000977409F00202BDC2A19000977446
:1001C6000AF00202BDC2A2900097740BF00202BDB3
:1001D600C2A3900097740CF00202BDC2A4900097CF
:1001E600740DF00202BDC2A5900097740EF00202D3
:1001F600BDC2A6900097740FF00202BDC2A7900080
:10020600977410F00202BDC2909000977411F0022C
:1002160002BDC2919000977412F00202BD90010ACD
:10022600E0FEA3E0FFEE60030202BDEFB412004061
:10023600030202BD900241F82828730202770202E7
:100246007B02027F02028302028702028B02028F76
:1002560002029302029702029B02029F0202A3027B
:1002660002A70202AB0202AF0202B30202B7020207
:10027600BBD2808042D281803ED282803AD28380B5
:1002860036D2848032D285802ED286802AD287804A
:1002960026D2A08022D2A1801ED2A2801AD2A3800A
:1002A60016D2A48012D2A5800ED2A6800AD2A7802A
:1002B60006D2908002D291784FE67821F67850E601
:1002C6007822F67851E67823F67852E67824F6789E
:1002D60053E67825F67854E67826F67B007A007998
:1002E600217D06120C62900143EEF0A3EFF090011F
:1002F60043E0FEA3E07827F6EE08F67D08120CA888
:0103060022D4
:100D2C009000A0EFF09000F4F09000A1EDF0900096
:100D3C00F5F09000A2EBF09000F6F0900146E090F8
:080D4C0000A3F09000F7F02273
:0D0DF900EFD3940040077EFFDEFE1F80F365
:010E060022C9
:100DD500900143EEF0A3EFF0E4F5B875B71075B5E3
:040DE50001F5B6223C
:10030700120DD5120DE912002612000EE580B4FF7A
:1003170008E5A0B4FF03209004C2918002D2912087
:1003270002030203D6C202900115E0B4010890014E
:100337000C7401F0800D900125E0B4010690010CCA
:100347007402F0900116E0FF6430603DEF643160A5
:1003570038EF64106033EF6411602E900118E0FFEE
:100367006027900128E070069000BCEF8011900193
:1003770028E0FF900118E0FE6F600E9000BCEEF0E1
:100387007B017A0079B6120B9B900126E0FF64305F
:10039700603DEF64316038EF64106033EF641160E3
:1003A7002E900128E0FF6027900118E0700690006A
:1003B700D8EF8011900118E0FF900128E0FE6F60F0
:1003C7000E9000D8EEF07B017A0079D2120B9B9049
:1003D700003AE0600A120046E490003AF080F0909C
:1003E7000097E0FF700302031314B41100400302E7
:1003F700050990040775F003A4C58325F0C5837329
:1004070002043A02043C02043E02044002044F0282
:10041700045E02046D02047C02048A02049802044A
:10042700A60204B40204C20204D00204DE0204ECF1
:100437000204FA80048011801E9001467401F07B4B
:100447000C7D0B7F020205069001467401F07B0CC0
:100457007D0B7F030205069001467401F07B0C7D3E
:100467000B7F040205069001467401F07B0C7D0B9F
:100477007F050205069001467401F07B0C7D0B7F1A
:1004870006807C9001467401F07B0C7D0B7F078012
:100497006E9001467401F07B0C7D0B7F05806090A8
:1004A70001467401F07B0C7D0B7F0680529001465C
:1004B7007401F07B0C7D0B7F07804490014674012B
:1004C700F07B0C7D0B7F0880369001467401F07B32
:1004D7000C7D0B7F0980289001467401F07B0C7D11
:1004E7000B7F0A801A9001467401F07B0C7D0B7F0D
:1004F70009800C9001467401F07B0C7D0B7F0A127A
:100507000D2CE4900097F07B017A00799A120999F3
:10051700120D797B017A0079EE120999120D797B18
:10052700017A00799A120999120D797B017A00797B
:07053700EE12099902031303
:03000B00020B36AF
:100B3600C0E0C0F0C083C082C0D075D000C000C085
:100B460001C002C003C004C005C006C007758A5AAA
:100B5600758C0090010DE004F0E0B40A1DE4F07B12
:100B6600017A0079011209997B017A00793E120B0C
:100B76009B7B017A00795A120B9BD007D006D005D1
:100B8600D004D003D002D001D000D0D0D082D08300
:050B9600D0F0D0E032B8
:100DE900758901758A5AE4F58CD2AFD2A9D28C22C1
:100A3800020307E493A3F8E493A34003F68001F2CA
:100A480008DFF48029E493A3F85407240CC8C333BF
:100A5800C4540F4420C8834004F456800146F6DF8E
:100A6800E4800B010204081020408090073EE47ED9
:100A7800019360BCA3FF543F30E509541FFEE49383
:100A8800A360010ECF54C025E060A840B8E493A34A
:100A9800FAE493A3F8E493A3C8C582C8CAC583CA75
:100AA800F0A3C8C582C8CAC583CADFE9DEE780BE2D
:0108A3000054
:100AB800BB010689828A83E0225002E722BBFE023C
:090AC800E32289828A83E493226F
:100AD100BB010CE58229F582E5833AF583E02250DA
:100AE10006E92582F8E622BBFE06E92582F8E22224
:0D0AF100E58229F582E5833AF583E493223E
:100AFE00F8BB010DE58229F582E5833AF583E8F02E
:100B0E00225006E92582C8F622BBFE05E92582C8D9
:020B1E00F222C1
:100B2000A3F8E0C5F025F0F0E58215827002158388
:060B3000E0C838F0E822E5
:00000001FF
